{
  "contractName": "Exchange",
  "abi": [
    {
      "inputs": [
        {
          "internalType": "address payable",
          "name": "_feeAccount",
          "type": "address"
        },
        {
          "internalType": "uint256",
          "name": "_feePercent",
          "type": "uint256"
        }
      ],
      "stateMutability": "nonpayable",
      "type": "constructor"
    },
    {
      "anonymous": false,
      "inputs": [
        {
          "indexed": false,
          "internalType": "uint256",
          "name": "id",
          "type": "uint256"
        },
        {
          "indexed": false,
          "internalType": "address",
          "name": "user",
          "type": "address"
        },
        {
          "indexed": false,
          "internalType": "address",
          "name": "tokenGet",
          "type": "address"
        },
        {
          "indexed": false,
          "internalType": "uint256",
          "name": "amountGet",
          "type": "uint256"
        },
        {
          "indexed": false,
          "internalType": "address",
          "name": "tokenGive",
          "type": "address"
        },
        {
          "indexed": false,
          "internalType": "uint256",
          "name": "amountGive",
          "type": "uint256"
        },
        {
          "indexed": false,
          "internalType": "uint256",
          "name": "timestamp",
          "type": "uint256"
        }
      ],
      "name": "CancelOrder",
      "type": "event"
    },
    {
      "anonymous": false,
      "inputs": [
        {
          "indexed": false,
          "internalType": "address",
          "name": "token",
          "type": "address"
        },
        {
          "indexed": false,
          "internalType": "address",
          "name": "user",
          "type": "address"
        },
        {
          "indexed": false,
          "internalType": "uint256",
          "name": "amount",
          "type": "uint256"
        },
        {
          "indexed": false,
          "internalType": "uint256",
          "name": "balance",
          "type": "uint256"
        }
      ],
      "name": "Deposit",
      "type": "event"
    },
    {
      "anonymous": false,
      "inputs": [
        {
          "indexed": false,
          "internalType": "uint256",
          "name": "id",
          "type": "uint256"
        },
        {
          "indexed": false,
          "internalType": "address",
          "name": "user",
          "type": "address"
        },
        {
          "indexed": false,
          "internalType": "address",
          "name": "tokenGet",
          "type": "address"
        },
        {
          "indexed": false,
          "internalType": "uint256",
          "name": "amountGet",
          "type": "uint256"
        },
        {
          "indexed": false,
          "internalType": "address",
          "name": "tokenGive",
          "type": "address"
        },
        {
          "indexed": false,
          "internalType": "uint256",
          "name": "amountGive",
          "type": "uint256"
        },
        {
          "indexed": false,
          "internalType": "uint256",
          "name": "timestamp",
          "type": "uint256"
        }
      ],
      "name": "OrderMade",
      "type": "event"
    },
    {
      "anonymous": false,
      "inputs": [
        {
          "indexed": false,
          "internalType": "uint256",
          "name": "id",
          "type": "uint256"
        },
        {
          "indexed": false,
          "internalType": "address",
          "name": "user",
          "type": "address"
        },
        {
          "indexed": false,
          "internalType": "address",
          "name": "tokenGet",
          "type": "address"
        },
        {
          "indexed": false,
          "internalType": "uint256",
          "name": "amountGet",
          "type": "uint256"
        },
        {
          "indexed": false,
          "internalType": "address",
          "name": "tokenGive",
          "type": "address"
        },
        {
          "indexed": false,
          "internalType": "uint256",
          "name": "amountGive",
          "type": "uint256"
        },
        {
          "indexed": false,
          "internalType": "address",
          "name": "userFill",
          "type": "address"
        },
        {
          "indexed": false,
          "internalType": "uint256",
          "name": "timestamp",
          "type": "uint256"
        }
      ],
      "name": "Trade",
      "type": "event"
    },
    {
      "anonymous": false,
      "inputs": [
        {
          "indexed": false,
          "internalType": "address",
          "name": "token",
          "type": "address"
        },
        {
          "indexed": false,
          "internalType": "address",
          "name": "user",
          "type": "address"
        },
        {
          "indexed": false,
          "internalType": "uint256",
          "name": "amount",
          "type": "uint256"
        },
        {
          "indexed": false,
          "internalType": "uint256",
          "name": "balance",
          "type": "uint256"
        }
      ],
      "name": "Withdraw",
      "type": "event"
    },
    {
      "stateMutability": "nonpayable",
      "type": "fallback"
    },
    {
      "inputs": [],
      "name": "feeAccount",
      "outputs": [
        {
          "internalType": "address payable",
          "name": "",
          "type": "address"
        }
      ],
      "stateMutability": "view",
      "type": "function"
    },
    {
      "inputs": [],
      "name": "feePercent",
      "outputs": [
        {
          "internalType": "uint256",
          "name": "",
          "type": "uint256"
        }
      ],
      "stateMutability": "view",
      "type": "function"
    },
    {
      "inputs": [
        {
          "internalType": "uint256",
          "name": "",
          "type": "uint256"
        }
      ],
      "name": "orderCanceled",
      "outputs": [
        {
          "internalType": "bool",
          "name": "",
          "type": "bool"
        }
      ],
      "stateMutability": "view",
      "type": "function"
    },
    {
      "inputs": [],
      "name": "orderCount",
      "outputs": [
        {
          "internalType": "uint256",
          "name": "",
          "type": "uint256"
        }
      ],
      "stateMutability": "view",
      "type": "function"
    },
    {
      "inputs": [
        {
          "internalType": "uint256",
          "name": "",
          "type": "uint256"
        }
      ],
      "name": "orderFilled",
      "outputs": [
        {
          "internalType": "bool",
          "name": "",
          "type": "bool"
        }
      ],
      "stateMutability": "view",
      "type": "function"
    },
    {
      "inputs": [],
      "name": "orderStatus",
      "outputs": [
        {
          "internalType": "enum Exchange.OrderStatus",
          "name": "",
          "type": "uint8"
        }
      ],
      "stateMutability": "view",
      "type": "function"
    },
    {
      "inputs": [
        {
          "internalType": "uint256",
          "name": "",
          "type": "uint256"
        }
      ],
      "name": "orders",
      "outputs": [
        {
          "internalType": "uint256",
          "name": "id",
          "type": "uint256"
        },
        {
          "internalType": "address",
          "name": "user",
          "type": "address"
        },
        {
          "internalType": "address",
          "name": "tokenGet",
          "type": "address"
        },
        {
          "internalType": "uint256",
          "name": "amountGet",
          "type": "uint256"
        },
        {
          "internalType": "address",
          "name": "tokenGive",
          "type": "address"
        },
        {
          "internalType": "uint256",
          "name": "amountGive",
          "type": "uint256"
        },
        {
          "internalType": "uint256",
          "name": "timestamp",
          "type": "uint256"
        }
      ],
      "stateMutability": "view",
      "type": "function"
    },
    {
      "inputs": [
        {
          "internalType": "address",
          "name": "",
          "type": "address"
        },
        {
          "internalType": "address",
          "name": "",
          "type": "address"
        }
      ],
      "name": "tokens",
      "outputs": [
        {
          "internalType": "uint256",
          "name": "",
          "type": "uint256"
        }
      ],
      "stateMutability": "view",
      "type": "function"
    },
    {
      "inputs": [
        {
          "internalType": "enum Exchange.OrderStatus",
          "name": "status",
          "type": "uint8"
        }
      ],
      "name": "changeStatus",
      "outputs": [
        {
          "internalType": "enum Exchange.OrderStatus",
          "name": "",
          "type": "uint8"
        }
      ],
      "stateMutability": "nonpayable",
      "type": "function"
    },
    {
      "inputs": [],
      "name": "depositEther",
      "outputs": [],
      "stateMutability": "payable",
      "type": "function"
    },
    {
      "inputs": [
        {
          "internalType": "address",
          "name": "_token",
          "type": "address"
        },
        {
          "internalType": "uint256",
          "name": "_amount",
          "type": "uint256"
        }
      ],
      "name": "depositToken",
      "outputs": [],
      "stateMutability": "nonpayable",
      "type": "function"
    },
    {
      "inputs": [
        {
          "internalType": "uint256",
          "name": "_amount",
          "type": "uint256"
        }
      ],
      "name": "withdrawEther",
      "outputs": [],
      "stateMutability": "payable",
      "type": "function"
    },
    {
      "inputs": [
        {
          "internalType": "address",
          "name": "_token",
          "type": "address"
        },
        {
          "internalType": "uint256",
          "name": "_amount",
          "type": "uint256"
        }
      ],
      "name": "withdrawTokens",
      "outputs": [
        {
          "internalType": "bool",
          "name": "success",
          "type": "bool"
        }
      ],
      "stateMutability": "nonpayable",
      "type": "function"
    },
    {
      "inputs": [
        {
          "internalType": "address",
          "name": "_token",
          "type": "address"
        },
        {
          "internalType": "address",
          "name": "_user",
          "type": "address"
        }
      ],
      "name": "balanceOf",
      "outputs": [
        {
          "internalType": "uint256",
          "name": "",
          "type": "uint256"
        }
      ],
      "stateMutability": "view",
      "type": "function"
    },
    {
      "inputs": [
        {
          "internalType": "address",
          "name": "_tokenGet",
          "type": "address"
        },
        {
          "internalType": "uint256",
          "name": "_amountGet",
          "type": "uint256"
        },
        {
          "internalType": "address",
          "name": "_tokenGive",
          "type": "address"
        },
        {
          "internalType": "uint256",
          "name": "_amountGive",
          "type": "uint256"
        }
      ],
      "name": "makeOrder",
      "outputs": [],
      "stateMutability": "nonpayable",
      "type": "function"
    },
    {
      "inputs": [
        {
          "internalType": "uint256",
          "name": "_id",
          "type": "uint256"
        }
      ],
      "name": "cancelOrder",
      "outputs": [],
      "stateMutability": "nonpayable",
      "type": "function"
    },
    {
      "inputs": [
        {
          "internalType": "uint256",
          "name": "_id",
          "type": "uint256"
        }
      ],
      "name": "fillOrder",
      "outputs": [],
      "stateMutability": "nonpayable",
      "type": "function"
    }
  ],
  "bytecode": "0x60806040523480156200001157600080fd5b506040516200235438038062002354833981810160405281019062000037919062000106565b6000600760006101000a81548160ff0219169083600281111562000084577f4e487b7100000000000000000000000000000000000000000000000000000000600052602160045260246000fd5b0217905550816000806101000a81548173ffffffffffffffffffffffffffffffffffffffff021916908373ffffffffffffffffffffffffffffffffffffffff160217905550806001819055505050620001b9565b600081519050620000e98162000185565b92915050565b60008151905062000100816200019f565b92915050565b600080604083850312156200011a57600080fd5b60006200012a85828601620000d8565b92505060206200013d85828601620000ef565b9150509250929050565b600062000154826200015b565b9050919050565b600073ffffffffffffffffffffffffffffffffffffffff82169050919050565b6000819050919050565b620001908162000147565b81146200019c57600080fd5b50565b620001aa816200017b565b8114620001b657600080fd5b50565b61218b80620001c96000396000f3fe6080604052600436106101025760003560e01c806365e17c9d1161009557806398ea5fca1161006457806398ea5fca1461034c5780639a5c90aa14610356578063a85c38ef1461037f578063c0977a38146103c2578063f7888aec146103ff57610103565b806365e17c9d1461029057806367b830ad146102bb5780637fd6f15c146102e457806395bc95381461030f57610103565b80633bed33ce116100d15780633bed33ce146101d15780634a93e0da146101ed578063508493bc1461022a578063514fcac71461026757610103565b806306b091f9146101155780632453ffa8146101525780632728e28b1461017d578063338b5dea146101a857610103565b5b34801561010f57600080fd5b50600080fd5b34801561012157600080fd5b5061013c600480360381019061013791906118cb565b61043c565b6040516101499190611cbc565b60405180910390f35b34801561015e57600080fd5b50610167610723565b6040516101749190611db2565b60405180910390f35b34801561018957600080fd5b50610192610729565b60405161019f9190611cd7565b60405180910390f35b3480156101b457600080fd5b506101cf60048036038101906101ca91906118cb565b61073c565b005b6101eb60048036038101906101e691906119bc565b610a0d565b005b3480156101f957600080fd5b50610214600480360381019061020f91906119bc565b610b35565b6040516102219190611cbc565b60405180910390f35b34801561023657600080fd5b50610251600480360381019061024c919061188f565b610b55565b60405161025e9190611db2565b60405180910390f35b34801561027357600080fd5b5061028e600480360381019061028991906119bc565b610b7a565b005b34801561029c57600080fd5b506102a5610d54565b6040516102b29190611bfc565b60405180910390f35b3480156102c757600080fd5b506102e260048036038101906102dd91906119bc565b610d78565b005b3480156102f057600080fd5b506102f9610eba565b6040516103069190611db2565b60405180910390f35b34801561031b57600080fd5b5061033660048036038101906103319190611993565b610ec0565b6040516103439190611cd7565b60405180910390f35b610354610f29565b005b34801561036257600080fd5b5061037d60048036038101906103789190611907565b611078565b005b34801561038b57600080fd5b506103a660048036038101906103a191906119bc565b611269565b6040516103b99796959493929190611e4b565b60405180910390f35b3480156103ce57600080fd5b506103e960048036038101906103e491906119bc565b61130b565b6040516103f69190611cbc565b60405180910390f35b34801561040b57600080fd5b506104266004803603810190610421919061188f565b61132b565b6040516104339190611db2565b60405180910390f35b600081600260008573ffffffffffffffffffffffffffffffffffffffff1673ffffffffffffffffffffffffffffffffffffffff16815260200190815260200160002060003373ffffffffffffffffffffffffffffffffffffffff1673ffffffffffffffffffffffffffffffffffffffff1681526020019081526020016000205410156104c757600080fd5b600073ffffffffffffffffffffffffffffffffffffffff168373ffffffffffffffffffffffffffffffffffffffff16141561050157600080fd5b81600260008573ffffffffffffffffffffffffffffffffffffffff1673ffffffffffffffffffffffffffffffffffffffff16815260200190815260200160002060003373ffffffffffffffffffffffffffffffffffffffff1673ffffffffffffffffffffffffffffffffffffffff168152602001908152602001600020600082825461058d9190611fac565b925050819055508273ffffffffffffffffffffffffffffffffffffffff1663a9059cbb33846040518363ffffffff1660e01b81526004016105cf929190611c93565b602060405180830381600087803b1580156105e957600080fd5b505af11580156105fd573d6000803e3d6000fd5b505050506040513d601f19601f82011682018060405250810190610621919061196a565b610660576040517f08c379a000000000000000000000000000000000000000000000000000000000815260040161065790611d52565b60405180910390fd5b7ff341246adaac6f497bc2a656f546ab9e182111d630394f0c57c710a59a2cb567833384600260008873ffffffffffffffffffffffffffffffffffffffff1673ffffffffffffffffffffffffffffffffffffffff16815260200190815260200160002060003373ffffffffffffffffffffffffffffffffffffffff1673ffffffffffffffffffffffffffffffffffffffff168152602001908152602001600020546040516107119493929190611c4e565b60405180910390a16001905092915050565b60065481565b600760009054906101000a900460ff1681565b600073ffffffffffffffffffffffffffffffffffffffff168273ffffffffffffffffffffffffffffffffffffffff1614156107ac576040517f08c379a00000000000000000000000000000000000000000000000000000000081526004016107a390611d12565b60405180910390fd5b600081116107ef576040517f08c379a00000000000000000000000000000000000000000000000000000000081526004016107e690611d72565b60405180910390fd5b8173ffffffffffffffffffffffffffffffffffffffff166323b872dd3330846040518463ffffffff1660e01b815260040161082c93929190611c17565b602060405180830381600087803b15801561084657600080fd5b505af115801561085a573d6000803e3d6000fd5b505050506040513d601f19601f8201168201806040525081019061087e919061196a565b6108bd576040517f08c379a00000000000000000000000000000000000000000000000000000000081526004016108b490611d32565b60405180910390fd5b80600260008473ffffffffffffffffffffffffffffffffffffffff1673ffffffffffffffffffffffffffffffffffffffff16815260200190815260200160002060003373ffffffffffffffffffffffffffffffffffffffff1673ffffffffffffffffffffffffffffffffffffffff16815260200190815260200160002060008282546109499190611ecb565b925050819055507fdcbc1c05240f31ff3ad067ef1ee35ce4997762752e3a095284754544f4c709d7823383600260008773ffffffffffffffffffffffffffffffffffffffff1673ffffffffffffffffffffffffffffffffffffffff16815260200190815260200160002060003373ffffffffffffffffffffffffffffffffffffffff1673ffffffffffffffffffffffffffffffffffffffff16815260200190815260200160002054604051610a019493929190611c4e565b60405180910390a15050565b80471015610a1a57600080fd5b80600260008073ffffffffffffffffffffffffffffffffffffffff1673ffffffffffffffffffffffffffffffffffffffff16815260200190815260200160002060003373ffffffffffffffffffffffffffffffffffffffff1673ffffffffffffffffffffffffffffffffffffffff1681526020019081526020016000206000828254610aa69190611fac565b925050819055503373ffffffffffffffffffffffffffffffffffffffff166108fc829081150290604051600060405180830381858888f19350505050158015610af3573d6000803e3d6000fd5b507ff341246adaac6f497bc2a656f546ab9e182111d630394f0c57c710a59a2cb5676000338347604051610b2a9493929190611c4e565b60405180910390a150565b60056020528060005260406000206000915054906101000a900460ff1681565b6002602052816000526040600020602052806000526040600020600091509150505481565b600060036000838152602001908152602001600020905081816000015414610bd7576040517f08c379a0000000000000000000000000000000000000000000000000000000008152600401610bce90611cf2565b60405180910390fd5b3373ffffffffffffffffffffffffffffffffffffffff168160010160009054906101000a900473ffffffffffffffffffffffffffffffffffffffff1673ffffffffffffffffffffffffffffffffffffffff1614610c69576040517f08c379a0000000000000000000000000000000000000000000000000000000008152600401610c6090611d92565b60405180910390fd5b60016004600084815260200190815260200160002060006101000a81548160ff0219169083151502179055507f8ad5af334aaf597f15dd597da702fda54fdf739d22e2c11afc21612c49cd38ec828260010160009054906101000a900473ffffffffffffffffffffffffffffffffffffffff168360020160009054906101000a900473ffffffffffffffffffffffffffffffffffffffff1684600301548560040160009054906101000a900473ffffffffffffffffffffffffffffffffffffffff1686600501548760060154604051610d489796959493929190611e4b565b60405180910390a15050565b60008054906101000a900473ffffffffffffffffffffffffffffffffffffffff1681565b600081118015610d8a57506006548111155b610d9357600080fd5b6004600082815260200190815260200160002060009054906101000a900460ff1615610dbe57600080fd5b6005600082815260200190815260200160002060009054906101000a900460ff1615610de957600080fd5b6000600360008381526020019081526020016000209050610e8681600001548260010160009054906101000a900473ffffffffffffffffffffffffffffffffffffffff168360020160009054906101000a900473ffffffffffffffffffffffffffffffffffffffff1684600301548560040160009054906101000a900473ffffffffffffffffffffffffffffffffffffffff1686600501546113b2565b6001600560008360000154815260200190815260200160002060006101000a81548160ff0219169083151502179055505050565b60015481565b600081600760006101000a81548160ff02191690836002811115610f0d577f4e487b7100000000000000000000000000000000000000000000000000000000600052602160045260246000fd5b0217905550600760009054906101000a900460ff169050919050565b34600260008073ffffffffffffffffffffffffffffffffffffffff1673ffffffffffffffffffffffffffffffffffffffff16815260200190815260200160002060003373ffffffffffffffffffffffffffffffffffffffff1673ffffffffffffffffffffffffffffffffffffffff1681526020019081526020016000206000828254610fb59190611ecb565b925050819055507fdcbc1c05240f31ff3ad067ef1ee35ce4997762752e3a095284754544f4c709d760003334600260008073ffffffffffffffffffffffffffffffffffffffff1673ffffffffffffffffffffffffffffffffffffffff16815260200190815260200160002060003373ffffffffffffffffffffffffffffffffffffffff1673ffffffffffffffffffffffffffffffffffffffff1681526020019081526020016000205460405161106e9493929190611c4e565b60405180910390a1565b60016006600082825461108b9190611ecb565b925050819055506040518060e0016040528060065481526020013373ffffffffffffffffffffffffffffffffffffffff1681526020018573ffffffffffffffffffffffffffffffffffffffff1681526020018481526020018373ffffffffffffffffffffffffffffffffffffffff168152602001828152602001428152506003600060065481526020019081526020016000206000820151816000015560208201518160010160006101000a81548173ffffffffffffffffffffffffffffffffffffffff021916908373ffffffffffffffffffffffffffffffffffffffff16021790555060408201518160020160006101000a81548173ffffffffffffffffffffffffffffffffffffffff021916908373ffffffffffffffffffffffffffffffffffffffff1602179055506060820151816003015560808201518160040160006101000a81548173ffffffffffffffffffffffffffffffffffffffff021916908373ffffffffffffffffffffffffffffffffffffffff16021790555060a0820151816005015560c082015181600601559050507f1839623a48dd9e4ee47dd1b5e7333ce32ea7c4876113d6ceb0cc1d3cb2231dc460065433868686864260405161125b9796959493929190611e4b565b60405180910390a150505050565b60036020528060005260406000206000915090508060000154908060010160009054906101000a900473ffffffffffffffffffffffffffffffffffffffff16908060020160009054906101000a900473ffffffffffffffffffffffffffffffffffffffff16908060030154908060040160009054906101000a900473ffffffffffffffffffffffffffffffffffffffff16908060050154908060060154905087565b60046020528060005260406000206000915054906101000a900460ff1681565b6000600260008473ffffffffffffffffffffffffffffffffffffffff1673ffffffffffffffffffffffffffffffffffffffff16815260200190815260200160002060008373ffffffffffffffffffffffffffffffffffffffff1673ffffffffffffffffffffffffffffffffffffffff16815260200190815260200160002054905092915050565b82600260008673ffffffffffffffffffffffffffffffffffffffff1673ffffffffffffffffffffffffffffffffffffffff16815260200190815260200160002060003373ffffffffffffffffffffffffffffffffffffffff1673ffffffffffffffffffffffffffffffffffffffff16815260200190815260200160002054101561143b57600080fd5b80600260008473ffffffffffffffffffffffffffffffffffffffff1673ffffffffffffffffffffffffffffffffffffffff16815260200190815260200160002060008773ffffffffffffffffffffffffffffffffffffffff1673ffffffffffffffffffffffffffffffffffffffff1681526020019081526020016000205410156114c457600080fd5b60006064600154836114d69190611f52565b6114e09190611f21565b905080846114ee9190611ecb565b600260008773ffffffffffffffffffffffffffffffffffffffff1673ffffffffffffffffffffffffffffffffffffffff16815260200190815260200160002060003373ffffffffffffffffffffffffffffffffffffffff1673ffffffffffffffffffffffffffffffffffffffff16815260200190815260200160002060008282546115799190611fac565b9250508190555083600260008773ffffffffffffffffffffffffffffffffffffffff1673ffffffffffffffffffffffffffffffffffffffff16815260200190815260200160002060008873ffffffffffffffffffffffffffffffffffffffff1673ffffffffffffffffffffffffffffffffffffffff168152602001908152602001600020600082825461160c9190611ecb565b9250508190555080600260008773ffffffffffffffffffffffffffffffffffffffff1673ffffffffffffffffffffffffffffffffffffffff16815260200190815260200160002060008060009054906101000a900473ffffffffffffffffffffffffffffffffffffffff1673ffffffffffffffffffffffffffffffffffffffff1673ffffffffffffffffffffffffffffffffffffffff16815260200190815260200160002060008282546116c09190611ecb565b9250508190555081600260008573ffffffffffffffffffffffffffffffffffffffff1673ffffffffffffffffffffffffffffffffffffffff16815260200190815260200160002060008873ffffffffffffffffffffffffffffffffffffffff1673ffffffffffffffffffffffffffffffffffffffff16815260200190815260200160002060008282546117539190611fac565b9250508190555081600260008573ffffffffffffffffffffffffffffffffffffffff1673ffffffffffffffffffffffffffffffffffffffff16815260200190815260200160002060003373ffffffffffffffffffffffffffffffffffffffff1673ffffffffffffffffffffffffffffffffffffffff16815260200190815260200160002060008282546117e69190611ecb565b925050819055507f0dddf4182dc0fc1a311cb75f049c97403c6b8a99cf6b2229a36e7c526acb3f81878787878787334260405161182a989796959493929190611dcd565b60405180910390a150505050505050565b60008135905061184a81612100565b92915050565b60008151905061185f81612117565b92915050565b6000813590506118748161212e565b92915050565b6000813590506118898161213e565b92915050565b600080604083850312156118a257600080fd5b60006118b08582860161183b565b92505060206118c18582860161183b565b9150509250929050565b600080604083850312156118de57600080fd5b60006118ec8582860161183b565b92505060206118fd8582860161187a565b9150509250929050565b6000806000806080858703121561191d57600080fd5b600061192b8782880161183b565b945050602061193c8782880161187a565b935050604061194d8782880161183b565b925050606061195e8782880161187a565b91505092959194509250565b60006020828403121561197c57600080fd5b600061198a84828501611850565b91505092915050565b6000602082840312156119a557600080fd5b60006119b384828501611865565b91505092915050565b6000602082840312156119ce57600080fd5b60006119dc8482850161187a565b91505092915050565b6119ee81611ff2565b82525050565b6119fd81611fe0565b82525050565b611a0c81612004565b82525050565b611a1b8161204d565b82525050565b6000611a2e601483611eba565b91507f6f7264657220646f6573206e6f742065786973740000000000000000000000006000830152602082019050919050565b6000611a6e602583611eba565b91507f63616e6e6f742073656e64206574686572207573696e6720746869732066756e60008301527f6374696f6e0000000000000000000000000000000000000000000000000000006020830152604082019050919050565b6000611ad4601383611eba565b91507f546f6b656e206465706f736974206572726f72000000000000000000000000006000830152602082019050919050565b6000611b14601783611eba565b91507f546f6b656e207472616e736665726564206661696c65640000000000000000006000830152602082019050919050565b6000611b54601683611eba565b91507f616d6f756e742073686f756c642062652076616c6964000000000000000000006000830152602082019050919050565b6000611b94602183611eba565b91507f546865206f7264657220646f6573206e6f742062656c6f6e677320746f20796f60008301527f75000000000000000000000000000000000000000000000000000000000000006020830152604082019050919050565b611bf681612043565b82525050565b6000602082019050611c1160008301846119e5565b92915050565b6000606082019050611c2c60008301866119f4565b611c3960208301856119f4565b611c466040830184611bed565b949350505050565b6000608082019050611c6360008301876119f4565b611c7060208301866119f4565b611c7d6040830185611bed565b611c8a6060830184611bed565b95945050505050565b6000604082019050611ca860008301856119f4565b611cb56020830184611bed565b9392505050565b6000602082019050611cd16000830184611a03565b92915050565b6000602082019050611cec6000830184611a12565b92915050565b60006020820190508181036000830152611d0b81611a21565b9050919050565b60006020820190508181036000830152611d2b81611a61565b9050919050565b60006020820190508181036000830152611d4b81611ac7565b9050919050565b60006020820190508181036000830152611d6b81611b07565b9050919050565b60006020820190508181036000830152611d8b81611b47565b9050919050565b60006020820190508181036000830152611dab81611b87565b9050919050565b6000602082019050611dc76000830184611bed565b92915050565b600061010082019050611de3600083018b611bed565b611df0602083018a6119f4565b611dfd60408301896119f4565b611e0a6060830188611bed565b611e1760808301876119f4565b611e2460a0830186611bed565b611e3160c08301856119f4565b611e3e60e0830184611bed565b9998505050505050505050565b600060e082019050611e60600083018a611bed565b611e6d60208301896119f4565b611e7a60408301886119f4565b611e876060830187611bed565b611e9460808301866119f4565b611ea160a0830185611bed565b611eae60c0830184611bed565b98975050505050505050565b600082825260208201905092915050565b6000611ed682612043565b9150611ee183612043565b9250827fffffffffffffffffffffffffffffffffffffffffffffffffffffffffffffffff03821115611f1657611f1561205f565b5b828201905092915050565b6000611f2c82612043565b9150611f3783612043565b925082611f4757611f4661208e565b5b828204905092915050565b6000611f5d82612043565b9150611f6883612043565b9250817fffffffffffffffffffffffffffffffffffffffffffffffffffffffffffffffff0483118215151615611fa157611fa061205f565b5b828202905092915050565b6000611fb782612043565b9150611fc283612043565b925082821015611fd557611fd461205f565b5b828203905092915050565b6000611feb82612023565b9050919050565b6000611ffd82612023565b9050919050565b60008115159050919050565b600081905061201e826120ec565b919050565b600073ffffffffffffffffffffffffffffffffffffffff82169050919050565b6000819050919050565b600061205882612010565b9050919050565b7f4e487b7100000000000000000000000000000000000000000000000000000000600052601160045260246000fd5b7f4e487b7100000000000000000000000000000000000000000000000000000000600052601260045260246000fd5b7f4e487b7100000000000000000000000000000000000000000000000000000000600052602160045260246000fd5b600381106120fd576120fc6120bd565b5b50565b61210981611fe0565b811461211457600080fd5b50565b61212081612004565b811461212b57600080fd5b50565b6003811061213b57600080fd5b50565b61214781612043565b811461215257600080fd5b5056fea2646970667358221220232c8961d5126dd94009783be8694e70dc87020322e2354ade876e92aad8dda764736f6c63430008000033",
  "immutableReferences": {},
  "source": "pragma solidity >=0.8.0 <0.9.0;\n\nimport \"./Token.sol\";\n\ncontract Exchange {\n    address payable public feeAccount;\n    uint256 public feePercent;\n    address constant ETHER = address(0);\n    mapping(address => mapping(address => uint256)) public tokens;\n    mapping(uint256 => _Order) public orders;\n    mapping(uint256 => bool) public orderCanceled;\n    mapping(uint256 => bool) public orderFilled;\n\n    uint256 public orderCount;\n\n    event Deposit(address token, address user, uint256 amount, uint256 balance);\n\n    event Withdraw(address token, address user, uint256 amount, uint256 balance);\n\n    event OrderMade(uint256 id, address user, address tokenGet, uint256 amountGet, address tokenGive, uint256 amountGive, uint256 timestamp);\n\n    event CancelOrder(uint256 id, address user, address tokenGet, uint256 amountGet, address tokenGive, uint256 amountGive, uint256 timestamp);\n\n    event Trade(uint256 id, address user, address tokenGet, uint256 amountGet, address tokenGive, uint256 amountGive, address userFill, uint256 timestamp);\n\n    enum OrderStatus {\n        preSell,\n        preBuy,\n        closed\n    }\n\n    OrderStatus public orderStatus;\n\n    struct _Order {\n        uint256 id;\n        address user;\n        address tokenGet;\n        uint256 amountGet;\n        address tokenGive;\n        uint256 amountGive;\n        uint256 timestamp;\n    }\n\n    constructor(address payable _feeAccount, uint256 _feePercent) public {\n        orderStatus = OrderStatus.preSell;\n        feeAccount = _feeAccount;\n        feePercent = _feePercent;\n    }\n\n    fallback() external {\n        revert();\n    }\n\n    function changeStatus(OrderStatus status) public returns (OrderStatus) {\n        orderStatus = status;\n        return orderStatus;\n    }\n\n    function depositEther() public payable {\n        tokens[ETHER][msg.sender] += msg.value;\n        emit Deposit(ETHER, msg.sender, msg.value, tokens[ETHER][msg.sender]);\n    }\n\n    function depositToken(address _token, uint256 _amount) public {\n        require(_token != ETHER, \"cannot send ether using this function\");\n        require(_amount > 0, \"amount should be valid\");\n        require((Token(_token).transferFrom(msg.sender, address(this), _amount)), \"Token deposit error\");\n        tokens[_token][msg.sender] += _amount;\n\n        emit Deposit(_token, msg.sender, _amount, tokens[_token][msg.sender]);\n    }\n\n    function withdrawEther(uint256 _amount) public payable {\n        require(address(this).balance >= _amount); //TODO chose which functionality we need\n        // if (address(this).balance <= _amount) {\n        //     uint256 contractBalance = address(this).balance;\n        //     tokens[ETHER][msg.sender] = tokens[ETHER][msg.sender] - contractBalance;\n        //     payable(msg.sender).transfer(contractBalance);\n        //     emit Withdraw(ETHER, msg.sender, _amount, contractBalance);\n        //     return;\n        // }\n\n        tokens[ETHER][msg.sender] -= _amount;\n        payable(msg.sender).transfer(_amount);\n        emit Withdraw(ETHER, msg.sender, _amount, address(this).balance);\n        return;\n    }\n\n    function withdrawTokens(address _token, uint256 _amount) public returns (bool success) {\n        require(tokens[_token][msg.sender] >= _amount);\n        require(_token != ETHER);\n        tokens[_token][msg.sender] -= _amount;\n        require(Token(_token).transfer(msg.sender, _amount), \"Token transfered failed\");\n        emit Withdraw(_token, msg.sender, _amount, tokens[_token][msg.sender]);\n        return true;\n    }\n\n    function balanceOf(address _token, address _user) public view returns (uint256) {\n        return tokens[_token][_user];\n    }\n\n    function makeOrder(\n        address _tokenGet,\n        uint256 _amountGet,\n        address _tokenGive,\n        uint256 _amountGive\n    ) public {\n        orderCount += 1;\n        orders[orderCount] = _Order(orderCount, msg.sender, _tokenGet, _amountGet, _tokenGive, _amountGive, block.timestamp);\n\n        emit OrderMade(orderCount, msg.sender, _tokenGet, _amountGet, _tokenGive, _amountGive, block.timestamp);\n    }\n\n    function cancelOrder(uint256 _id) public {\n        _Order storage _order = orders[_id];\n        require(_order.id == _id, \"order does not exist\");\n        require(address(_order.user) == msg.sender, \"The order does not belongs to you\");\n\n        orderCanceled[_id] = true;\n        emit CancelOrder(_id, _order.user, _order.tokenGet, _order.amountGet, _order.tokenGive, _order.amountGive, _order.timestamp);\n    }\n\n    function fillOrder(uint256 _id) public {\n        require(_id > 0 && _id <= orderCount);\n        require(!orderCanceled[_id]);\n        require(!orderFilled[_id]);\n        _Order storage _order = orders[_id];\n        _trade(_order.id, _order.user, _order.tokenGet, _order.amountGet, _order.tokenGive, _order.amountGive);\n        orderFilled[_order.id] = true;\n    }\n\n    function _trade(\n        uint256 _orderId,\n        address _user,\n        address _tokenGet,\n        uint256 _amountGet,\n        address _tokenGive,\n        uint256 _amountGive\n    ) internal {\n        require(tokens[_tokenGet][msg.sender] >= _amountGet);\n        require(tokens[_tokenGive][_user] >= _amountGive);\n        uint256 _feeAmount = (_amountGive * feePercent) / 100;\n        tokens[_tokenGet][msg.sender] -= (_amountGet + _feeAmount);\n        tokens[_tokenGet][_user] += _amountGet;\n        tokens[_tokenGet][feeAccount] += _feeAmount;\n        tokens[_tokenGive][_user] -= _amountGive;\n        tokens[_tokenGive][msg.sender] += _amountGive;\n\n        emit Trade(_orderId, _user, _tokenGet, _amountGet, _tokenGive, _amountGive, msg.sender, block.timestamp);\n    }\n}\n",
  "sourcePath": "/Users/valentin/Documents/projects/dex/contracts/Exchange.sol",
  "compiler": {
    "name": "solc",
    "version": "0.8.0+commit.c7dfd78e.Emscripten.clang"
  },
  "schemaVersion": "3.2.5",
  "updatedAt": "2022-02-07T09:24:05.604Z",
  "devdoc": {
    "kind": "dev",
    "methods": {},
    "version": 1
  },
  "userdoc": {
    "kind": "user",
    "methods": {},
    "version": 1
  }
}